:030000000208A44F
:0C08A400787FE4F6D8FD75810C0208EBAB
:100A35004E424E535449430057656C636F6D6500D4
:100A450050656F706C6520436F756E74657221001B
:040A7D00020B000068
:10093000120A557BFF7A0A79351209ED7FC0120A37
:10094000697BFF7A0A793D1209ED7FE87E03120A7E
:100950001A7F01120A697F80120A697BFF7A0A797D
:10096000451209ED7FC0120A69AF0CAE0B1209B92E
:1009700020A0217FC87E00120A1A20A1F3050CE5F1
:100980000C7002050BFFAE0B1209B97FF47E011249
:100990000A1A80DC20A1D97FC87E00120A1A20A082
:1009A000CFE50C150C7002150BAF0CAE0B1209B98C
:0909B0007FF47E01120A1A80B7DF
:080A1200C2B6D2B77F057E00D9
:100A1A00D3EF9400EE64809480400F7DFADDFE7D72
:0A0A2A00F8DDFEEF1F70E91E80E604
:010A3400229F
:0A0A69008F90C2B5120A12C2B72224
:0A0A73008F90D2B5120A12C2B7220A
:1009ED008B088A09890AAB08AA09A90A12080060AE
:1009FD0013050AE50A7002050914F9120800FF1221
:050A0D000A7380E222E3
:100A55007F38120A697F0C120A697F01120A697FC1
:040A650080020A6998
:1009B900AB07AA067FC0120A697C007D0AAF03AEA5
:1009C900021208197C007D0A120819ED2430FF1261
:1009D9000A73AE02AF037C007D0A120819ED2430B8
:0409E900FF020A738C
:1008B000020930E493A3F8E493A34003F68001F225
:1008C00008DFF48029E493A3F85407240CC8C33349
:1008D000C4540F4420C8834004F456800146F6DF18
:1008E000E4800B0102040810204080900A7DE47E21
:1008F000019360BCA3FF543F30E509541FFEE4930D
:10090000A360010ECF54C025E060A840B8E493A3D3
:10091000FAE493A3F8E493A3C8C582C8CAC583CAFE
:10092000F0A3C8C582C8CAC583CADFE9DEE780BEB6
:010A81000074
:10080000BB010689828A83E0225002E722BBFE02F6
:09081000E32289828A83E4932229
:10081900C2D5EC30E709B2D5E4C39DFDE49CFCEEFA
:1008290030E715B2D5E4C39FFFE49EFE12084FC31B
:10083900E49DFDE49CFC800312084F30D507C3E416
:060849009FFFE49EFE2269
:10084F00BC000BBE0029EF8DF084FFADF022E4CC8D
:10085F00F875F008EF2FFFEE33FEEC33FCEE9DEC56
:10086F00984005FCEE9DFE0FD5F0E9E4CEFD22ED9C
:10087F00F8F5F0EE8420D21CFEADF075F008EF2FE6
:10088F00FFED33FD4007985006D5F0F222C398FDD7
:05089F000FD5F0EA2274
:00000001FF
